:020000040800F2
:100000004813002049010008E31C0008351B0008C4
:100010005D1C0008C50300088120000800000000E6
:10002000000000000000000000000000FD1C0008AF
:10003000B505000800000000E51C0008991D000837
:100040006301000863010008630100086301000800
:1000500063010008630100086301000863010008F0
:1000600063010008630100086301000863010008E0
:1000700063010008630100086301000863010008D0
:1000800063010008630100086301000863010008C0
:1000900063010008630100086301000863010008B0
:1000A00063010008630100086301000863010008A0
:1000B0006301000863010008630100086301000890
:1000C0006301000863010008630100086301000880
:1000D00063010008092000085D2000086301000892
:1000E0006301000863010008630100086301000860
:1000F0006301000863010008630100086301000850
:10010000630100086301000863010008630100083F
:100110006301000863010008ED1D00086301000889
:10012000630100086301000863010008630100081F
:10013000DFF810D000F04EF800480047FD2000081E
:10014000AFF3008048130020064880470648004768
:10015000FEE7FEE7FEE7FEE7FEE7FEE7FEE7FEE777
:10016000FEE7FEE7EB1D000831010008202A04DB52
:10017000203A21FA02F00021704721FA02F3D04020
:10018000C2F12002914008431946704740EA01033A
:100190009B0703D009E008C9121F08C0042AFAD23D
:1001A00003E011F8013B00F8013B521EF9D2704701
:1001B000D2B201E000F8012B491EFBD270470022A9
:1001C000F6E710B513460A4604461946FFF7F0FF56
:1001D000204610BD064C074D06E0E06840F00103E4
:1001E00094E8070098471034AC42F6D3FFF7A4FF19
:1001F000202A0008402A00082DE9F0476349002022
:100200008A78132A07D008226149624801F072FCFB
:100210000520BDE8F0875D4A5F4C91F803C057792F
:1002200096790025237812794FF00109BCF1050F6A
:1002300067D2DFE80CF0030D21478500002A6FD15B
:10024000012B03D0552001F01DFF93E0012220E097
:10025000022A76D1012BF9D050480770467000F081
:100260005DFA18B184F80090012200E00222172103
:10027000EF2001F0CFFE7FE0002A62D0822A60D812
:10028000F3B3474A474B17705670404A1279921E93
:1002900006E01B21ECE70C18E4791C54401CC0B2AA
:1002A0008242F8DCD1B23F4800F048FA38B101226E
:1002B0001921EF2001F0AEFE01F0D6FE5CE0022233
:1002C0001921D5E7102A3CD1D3B12570364D0A1833
:1002D00052792A54401CC0B21028F8D33348324A0D
:1002E00001681032324801F057FF2F4F0024314E81
:1002F0001037285D395D884213D12B48103001E05A
:100300000CE03BE000F0F8FA86F80590AA2001F036
:10031000B9FE641CE4B2102CEBD307E00222B8E76C
:100320000FE0FF2001F0AEFE02207071214800F0C6
:100330004BF8B0710A2000F0A3FB09221D4913E01D
:1003400032B108221C49134801F0D4FB032060E7B6
:10035000104801F00BFA2570FF2001F093FE0A20EF
:1003600000F08EFB154908220A4801F0C3FB142057
:1003700000F086FB00F0F0FD00204AE7082210495B
:10038000044801F0B7FB042043E70000000300200D
:1003900062000020800200209C0000208B000020D2
:1003A0008D00002011060020080F0020A000002072
:1003B000000002087A000020520000208300002084
:1003C0005A000020FEE7000070B50A4C01790222B5
:1003D0004D1D636803E0865C521C3344D2B29542E3
:1003E000F9D8C91CB3FBF1F0C0B2207000216160E4
:1003F00070BD0000A80000202DE9F05F6249DFF821
:100400008C9108460A79B9F800300678477802F1ED
:100410000808DFF87CC100255E484FF489749845D0
:1004200077D1FF2E01D1FF2F13D0A9F800504580BE
:1004300042888D54521C92B24280A242F8D90822BE
:1004400055495648CCF8005001F054FB0720BDE850
:10045000F09FCF184E4617F8028CB8F1EE0F05D179
:1004600017F8018CCB46B8F1EE0F11D035804580DE
:1004700042888D54521C92B24280A242F8D908227E
:1004800047494648CCF8005001F034FB0620DEE72F
:10049000A946CCF8005002254580561DE24609E0E9
:1004A00011F80580DAF800C06D1CE044CAF800803D
:1004B000D4464580ADB2AE42F2D8DCF80060D21C22
:1004C000B6FBF2F217F8037C6546BA424A4621D1E0
:1004D0004280344F08E000BF11F80C8007F80C8010
:1004E0000CF1010CA0F802C0B0F802C09C45F3D397
:1004F0002D4F3B70ABF8002042804388CA545B1CF0
:100500009BB24380A342F8D9284901202A60087091
:100510009DE712E0ABF8002042804388CA545B1C80
:100520009BB24380A342F8D9CCF80020082220498E
:100530001A4801F0DFFA022089E71BB3022B0CD224
:10054000FF2E1FD0A9F80050458042888D54521CC0
:1005500092B24280A242F8D90DE0FF2E01D1FF2FC6
:1005600010D0A9F80050458042888D54521C92B298
:100570004280A242F8D9082207490848CCF8005026
:1005800001F0B8FA002062E7FE04002048000020D5
:1005900044000020A80000207200002080020020FB
:1005A0006A000020000300204300002042000020D9
:1005B0004A000020704710B586B0044600F010FBDA
:1005C0000020012102940090CDE9031004A968469F
:1005D00000F068FA00F0BAFA06B010BD10B586B0A7
:1005E000044600F0FDFA0020302102940090CDE98D
:1005F000031004A9684600F055FA00F0A7FA06B007
:10060000012010BD7047000006490020C86106485F
:10061000016941F004010161016941F0400101619A
:1006200070470000280F002000200240064A0021E9
:10063000D16106490A6942F002020A61486108690B
:1006400040F0400008617047280F00200020024061
:10065000044B0022DA61044A136943F00103136179
:1006600001807047280F002000200240144800221B
:10067000C168CB06134904D5CA6942F00202CA61B7
:100680001022C3685B0705D5CB6943F00103CB613A
:1006900042F00402C369DB0707D0CB6943F00403CF
:1006A000CB61C16921F00101C161A2F580710139FD
:1006B00001D0C2607047C16921F00101C16170477A
:1006C00000200240280F002070B5054600F0A6FB70
:1006D0000646114C09E0681C07D025B100F09EFBCE
:1006E000801BA84201D9032070BDE068C007F2D189
:1006F000E068800601D52020E060E068C00605D4EF
:10070000E069C00702D1E068400703D5FFF7AEFFFC
:10071000012070BD002070BD0020024006484178D5
:10072000007801EB0020C001B0F5C03F01D80120E6
:1007300070470020704700008B0000202DE9F04F2B
:10074000ADF52D7D0E460546802181A8FFF737FDCA
:100750000027A297A397A4974FF4007AA597A6978E
:10076000A797A8973C4651466846A997FFF727FDEB
:100770005A484178007801EB002059494A780978B5
:1007800002EB0121814205D1C1018039554A314432
:1007900001241160802E05D0FF2101E0A955761CAF
:1007A000802EFBD3002181AA05EB810315F821607F
:1007B00093F801C006EB0C2693F802C0DB784FEAF1
:1007C0000C4C0CEB0363334442F82130491C2029C4
:1007D000EAD3401EC0F30713434D00F00F01434816
:1007E0002B70434E0180002000EB411852F820C0CE
:1007F000401C46F828C02028F6D3DFF8F880E9B37B
:100800000F2901D0002C66D000F0EAF9B34600248D
:100810004646B9462878D846C00200EB84008119C4
:100820005BF824200023022000F09AF9012000F058
:1008300027F95746641CBC42ECD300F087F900242A
:10084000EB46C24600205A464FEA0A0C00EBC411A0
:1008500002EB80035CF8211002F820104FEA112807
:1008600083F801804FEA1148090E83F80280401C8A
:10087000D9708028EAD3A2AA394600E018E0684679
:1008800001F08AFC2878A6AAC00200EB442030447C
:10089000394601F081FC0020A2A9A6AA0B5C12F83F
:1008A00000C0634509D000200DF52D7DBDE8F08F17
:1008B00008EBC320FFF77FFE0DE0401C1028EDD3AE
:1008C000641CCDF88892CDF88C92CDF89092CDF83A
:1008D0009492042CB6DB0120E6E700008D00002096
:1008E0008B000020A00000208F000020900000203E
:1008F0000807002000000208F0B585B0074600F0A8
:100900006FF90025104E012002960095CDE90305F0
:1009100004A9684600F0C6F80C4C657060780023A6
:1009200006EBC0013A5C012000F01AF9012000F04A
:10093000A7F86078401CC0B260701028EED300F0B9
:1009400005F905B0F0BD000000B00308A4000020C8
:100950002DE9F05F90F821100024022903D0042132
:100960008163012485E001680A6822F00E020A60B2
:1009700001680A6822F001020A603F4E3E4FB2153C
:10098000DFF8F4C0DFF8F090DFF8ECA0DFF8E8B0B3
:10099000DFF8E4E00168783F13011502ACF1640C64
:1009A000A9F15009AAF13C0AABF1280BAEF1140EE3
:1009B0004FF48018B14227D9B9420ED0614512D008
:1009C00049451DD0514518D0594518D0714501D120
:1009D000424615E0294EB14201D1012210E0274ED6
:1009E0001436B14201D110220AE0244E2836B14219
:1009F00006D0224A3C32914201D11A4600E02A46F2
:100A00001E49091F0A602BE0B94213D0614517D077
:100A1000494522D051451DD059451DD0714501D1C0
:100A200042461AE0B14202D14FF0807215E0134EF7
:100A3000B14201D1012210E0104E1436B14201D171
:100A400010220AE00D4E2836B14206D00B4A3C3245
:100A5000914201D11A4600E02A46074980394A608E
:100A6000012180F82110002180F82010416B01B194
:100A700088472046BDE8F09F8000024008040240FD
:100A800070B5044600F0CAF90546601C02D004485F
:100A90000078044400F0C2F9401BA042FAD370BDB4
:100AA000B00000202DE9F047054626480F460126F4
:100AB000017E01290FD00121814601762868DFF8E7
:100AC00088804CF25034022808D0A2462046FFF716
:100AD000FBFDA8B131E00220BDE8F0872046FFF71A
:100AE000F3FD08BB0120FFF78FFD2046FFF7ECFD6B
:100AF000D8F81010064621F00401C8F810101CE0C8
:100B00004FF0FF303860AC6811E02046FFF78EFDF3
:100B10005046FFF7D9FDD8F81010060021F0020169
:100B2000C8F8101001D03C6007E004F50064D5E976
:100B3000020100EBC120A042E7D8002189F818107B
:100B40003046C9E7280F0020002002400348016911
:100B500041F0800101610020704700000020024048
:100B60002DE9F05F07461C4888460024017E1546A3
:100B70001E46012909D00121814601764CF2503AE6
:100B80005046FFF7A1FD18B122E00220BDE8F09F1A
:100B9000012F02D0022F00D00427D346DFF83CA05B
:100BA000220128463146FFF7E1FA81B208EB440002
:100BB000FFF74EFD5846FFF787FDDAF8102022F0C8
:100BC0000102CAF8102018B9641CE4B2BC42E7D391
:100BD000002289F81820D9E7280F002000200240C1
:100BE000064900200A69120607D5054A4A60054AE7
:100BF0004A600969090600D50120704700200240BB
:100C000023016745AB89EFCD2DE9F84FDFF8C89197
:100C1000002409F1040A0AF1040B23460F270BF103
:100C2000040ED1E00125A54006EA0502AA4276D1CC
:100C3000DFF8A8C14E68A6EB0C0866452BD00DDC8A
:100C4000032E34D005DC36B3012E19D0022E2FD15D
:100C50001BE0112E16D0122E2AD119E0B8F5881FEC
:100C600019D006DCB8F5803F15D0B8F5801F1FD12C
:100C700011E0B8F5001F0ED0B8F5041F18D10AE036
:100C8000CB6815E0CB681B1D12E0CB6808330FE082
:100C9000CB680C330CE08B682BB1012B4FF00803B1
:100CA00003D0456104E0042302E0056100E0002375
:100CB000FF2A01D8064601E000F104064FEA840548
:100CC00001D9A5F12005D6F8008007FA05FC28EA2D
:100CD0000C0803FA05F548EA0508C6F800804D68D7
:100CE000ED0070D53E4DAE6946F00106AE61AD69CE
:100CF00024F0030605F0010500953A4D06EB050CBE
:100D0000DCF80850A607360F07FA06F825EA0805AA
:100D1000DFF8D480404503D14FF0000825E052E0D1
:100D2000DFF8C880404502D14FF001081DE0DFF830
:100D3000C080404502D14FF0020816E0DFF8B480D1
:100D4000404502D14FF003080FE0DFF8AC8040458A
:100D500002D14FF0040808E0DFF8A080404502D13E
:100D60004FF0050801E04FF0060808FA06F848EAD7
:100D70000508CCF808804D68D9F80060ED034D46B1
:100D800001D5164300E096432E604D68DAF8006006
:100D9000AD03554601D5164300E096432E604D68DD
:100DA000DBF80060ED025D4601D5164300E0964396
:100DB0002E604D68DEF80060AD02754601D5164321
:100DC00000E096432E60641C0A681646E2407FF4F9
:100DD00029AFBDE8F88F00000004014000001110A9
:100DE000001002400000014000080140000C0140DA
:100DF000001001400014014000180140001C014097
:100E0000C26821EA02030A4043EA024101617047D5
:100E10000AB1016170470904FBE7000001488068DE
:100E200070470000B0000020024881680278114439
:100E300081607047B0000020074810B5016841F09C
:100E400010010160032000F075F8002000F006F8A2
:100E500000F024F8002010BD0020024070B50D4DB8
:100E600004464FF47A712878B1FBF0F00A4909681A
:100E7000B1FBF0F000F0FEFA48B9102C07D20022C6
:100E80002146501E00F036F800206C6070BD012035
:100E900070BD0000B0000020BC0000200C4808B568
:100EA000816941F001018161816901F001010091D5
:100EB000C16941F08051C161C06900F0805000906B
:100EC0000448416821F0E06141F00071416008BDD3
:100ED0000010024000000140002809DB00F01F0262
:100EE000012191404009800000F1E020C0F800118C
:100EF00070470000F0B40E4B1B680C46C3F302238E
:100F0000C3F10705042D00D90425191D072901D2B5
:100F1000002300E0DB1E012606FA05F1491E2140F0
:100F200099409E40761E16403143F0BC01F0C6B891
:100F30000CED00E0064900F0070208684FF6FF03D9
:100F4000184040EA0220034A10430860704700003E
:100F50000CED00E00000FA05BFF34F8F0548016873
:100F6000054A01F4E06111430160BFF34F8F00BFF8
:100F7000FDE700000CED00E00400FA052DE9F04764
:100F80000F46050061D0434E306800F00700B842BC
:100F900009D2306820F0070038433060306800F034
:100FA0000700B84251D128683B4C810712D5400751
:100FB00003D5606840F4E06060602878000703D5DE
:100FC000606840F4605060606068A96820F0F000DC
:100FD000084360602878C00728D06868012810D0CE
:100FE0002168022810D0890700292EDA616821F0D3
:100FF000030101436160FFF711FF804641F2883928
:101000000DE021688903EFE78901EDE7FFF706FFAF
:10101000A0EB0801494502D90320BDE8F0876068CC
:10102000696800F00C00B0EB810FEFD1306800F080
:101030000700B8420BD9306820F007003843306011
:10104000306800F00700B84201D00120E5E72878B9
:10105000400705D56068E96820F4E06008436060F7
:101060002878000706D56068296920F4605040EAB6
:10107000C100606000F038F86168084AC1F30311EC
:10108000515CC8400649086006480068FFF7E6FE64
:101090000020C2E70020024000100240062A00089B
:1010A000BC000020B40000200448054900684968DD
:1010B000044AC1F30221515CC8407047BC000020C3
:1010C00000100240162A00080448054900684968D3
:1010D000044AC1F3C221515CC8407047BC000020E3
:1010E00000100240162A000812A185B00FC98DE831
:1010F0000F0014A0144A006804905168134801F0CE
:101100000C03042B10D0082B0ED1C1F38343C90369
:101110001DF803000AD5516804AAC1F34041515C8F
:101120000A4A5043B0FBF1F005B070470849484304
:10113000FAE7000002030405060708090A0B0C0D74
:101140000E0F1010010200000010024000127A0081
:1011500000093D002DE9F84F040070D02078C04D03
:10116000C00749D06868C0F38100012807D06868CB
:10117000C0F38100022809D16868C00306D5286839
:10118000800339D560680028E7D035E06068B0F5A5
:10119000803F0BD010B1B0F5A02F11D0286820F4FB
:1011A00080302860286820F4802002E0286840F41D
:1011B00080302860606890B1FFF730FE06460AE094
:1011C000286840F480202860F0E700BFFFF726FE83
:1011D000801B642873D828688003F7D50CE0FFF7DC
:1011E0001DFE064605E000BFFFF718FE801B6428C1
:1011F000F0D828688003F7D420789A4E80074FF003
:1012000001094FF0000839D5686810F00C0F07D0BD
:101210006868C0F38100022809D16868C00306D459
:101220002868800714D52069012808D110E02069BA
:10123000B0B1C6F80090FFF7F1FD074605E00AE1FE
:10124000FFF7ECFDC01B0228C4D828688007F7D53B
:101250002868616920F0F80040EAC10028600DE0CC
:10126000C6F80080FFF7DAFD074604E0FFF7D6FD79
:10127000C01B022823D828688007F7D420780007ED
:101280002CD57948A169D9B1C0F80090FFF7C6FD07
:10129000074604E0FFF7C2FDC01B02280FD8686AAA
:1012A0008007F7D571484FF4FA510068B0FBF1F0B0
:1012B000009000BF0098411E0091FAD20EE080E03D
:1012C000C0F80080FFF7AAFD074604E0FFF7A6FD7F
:1012D000C01B022875D8686A8007F7D420784007B9
:1012E00060D5E8690027C00008D4E86940F0805064
:1012F000E861E869012700F0805000905C480168CF
:10130000C90513D40168834641F480710160FFF779
:1013100085FD824606E000BFFFF780FDA0EB0A00D6
:1013200064284ED8DBF80000C005F5D5E068012838
:101330000AD008B1052813D0286A20F001002862DD
:10134000286A20F0040002E0286A40F001002862C8
:10135000E06841F2883B98B1FFF760FD82460BE000
:10136000286A40F004002862EEE700BFFFF756FD50
:10137000A0EB0A0159455AD8286A8007F6D50CE037
:10138000FFF74CFD824605E0FFF748FDA0EB0A01A0
:1013900059454CD8286A8007F6D41FB1E86920F077
:1013A0008050E861E06988B36968C1F3810102296E
:1013B00044D00228C6F8608004D0FFF72FFD044611
:1013C00038E034E0FFF72AFD074604E0FFF726FD8A
:1013D000C01B02282BD828688001F7D4206AB0F5FA
:1013E000803F05D16868A16820F400300843686038
:1013F000D4E908010843696821F47411084368605E
:10140000C6F86090FFF70AFD044606E025E000BF3D
:10141000FFF704FD001B022809D828688001F7D5D2
:101420001BE000BFFFF7FAFC001B022802D90320D3
:10143000BDE8F88F28688001F4D40EE00128F7D0C9
:101440006868226A00F48031914204D1616A00F434
:101450007010884201D00120EAE70020E8E7000090
:10146000001002400000424280044242BC000020C2
:101470000070004010B5401EB0F1807F01D3012004
:1014800010BD4FF0E02460610F21601700F016FEE0
:101490000020A06107202061002010BD7047704728
:1014A00070B590F83C20012A2CD0012480F83C40F3
:1014B000022280F83D2003685A689D6822F0700679
:1014C0000A6832435A60104B02689A420ED00F4BA2
:1014D0009A420BD0B2F1804F08D00D4B9A4205D002
:1014E0000C4B9A4202D00C4B9A4204D1496825F029
:1014F00080031943916080F83D40002180F83C1042
:10150000084670BD022070BD002C0140003401402F
:101510000004004000080040000C004010B504002A
:1015200003D094F83D0010B107E0012010BD002069
:1015300084F83C00204600F01FF8022084F83D00AB
:10154000211D206800F058FC012084F8460084F832
:101550003E0084F83F0084F8400084F8410084F89D
:10156000420084F8430084F8440084F8450084F87D
:101570003D00002010BD000008B500680B498842FE
:1015800012D10B48C16941F01001C161C06900224C
:1015900000F01000009011463620FFF7ABFCBDE8CC
:1015A00008403620FFF798BC08BD0000001000403E
:1015B000001002400168CA6822F00102CA60016896
:1015C0000A6A41F211131A4207D10A6A9B101A42A1
:1015D00003D10A6822F001020A60012180F83D105F
:1015E00000207047704770B50446006801694FF0ED
:1015F0000005C943890715D4C168C943890711D4B7
:10160000E91E01610120207720688069800720465B
:1016100002D0FFF7E7FF04E000F098F8204600F062
:1016200096F8257720680169C943490717D4C1682E
:10163000C943490713D46FF00401016102202077E8
:101640002068806910F4407F204602D0FFF7CAFF6F
:1016500004E000F07BF8204600F079F82577206858
:101660000169C943090716D4C168C943090712D4DF
:101670006FF008010161042020772068C0698007AD
:10168000204602D0FFF7AEFF04E000F05FF82046EE
:1016900000F05DF8257720680169C943C90617D4B1
:1016A000C168C943C90613D46FF010010161082055
:1016B00020772068C06910F4407F204602D0FFF7F1
:1016C00091FF04E000F042F8204600F040F8257752
:1016D00020680169C943C90708D1C168C943C9075E
:1016E00004D1891E0161204600F032F820680169AA
:1016F000C943090609D4C168C943090605D46FF076
:10170000800101612046FFF7C9FE20680169C943D5
:10171000490609D4C168C943490605D46FF04001A0
:101720000161204600F020F820680169C94389065C
:101730000BD4C168C943890607D46FF02001016149
:101740002046BDE87040FFF7AABE70BD70477047E5
:101750000349884203D103480168491C016070476E
:10176000C0000020940000207047704710B5044668
:101770000068C16821F49071C1602068416921F05E
:1017800001014161206841694FF020024B064FF092
:1017900000010FD5436923F040034361606B48B1FA
:1017A00008494163606BFFF7D3F848B1606B416B48
:1017B000884705E0E18584F83A202046FFF7D5FF09
:1017C000002010BD951E00087047000070B502682B
:1017D00004461068D168536910F00F0F52D003F01F
:1017E000010501F490762E435FD0C20705D0CA05EB
:1017F00003D5E26B42F00102E263420705D5DA0746
:1018000003D0E26B42F00202E263820705D5DA07F9
:1018100003D0E26B42F00402E263020707D501F055
:1018200020022A4303D0E26B42F00802E263E26B3B
:10183000002A33D0800604D5880602D5204600F061
:1018400041FB20684069E16BC0F38010090700D4B8
:1018500028B3204600F028FB2068416949061AD5C4
:10186000416921F040014161606BA0B12D494163A4
:10187000606BFFF76DF8002810D0606B416BBDE81E
:1018800070400847830610D58B060ED52046BDE86C
:10189000704000F017BB2046FFF796FF70BD204652
:1018A000FFF792FF0020E06370BD03062BD50B0607
:1018B00029D594F839002128F6D1A068B0F5805FC9
:1018C00001D12069B0B1206A411C216221680078F1
:1018D0004860E08C401E0004000CE084E4D12068E5
:1018E000C16821F08001C1602068C16841F04001F9
:1018F000C16070BD206A0088C0F308005060206A93
:10190000801C2062E5E74006F3D54806F1D5D16892
:10191000204621F04001D160202184F8391000F0E8
:1019200008F970BD851E000870B5040004D094F855
:101930003900002510B106E0012070BD84F8385050
:10194000204600F023F8242084F839002068C1687C
:1019500021F40051C160204600F0FAFA20680169C4
:1019600021F4904101612068416921F02A0141611F
:101970002068C16841F40051C160E563202084F80B
:10198000390084F83A00002070BD000070B586B0C0
:10199000002400940194029403942E4E03682E496F
:1019A000022003222D4DB34226D18B6943F480439C
:1019B0008B618B6903F4804304938B6943F00403C8
:1019C0008B618969039201F0040104910102CDE960
:1019D000001069462846FFF717F92815CDE90004DD
:1019E000694628460294FFF70FF900221146252088
:1019F000FFF780FA252028E0194EB34227D1CB69A2
:101A000043F40033CB61CB6903F4003304938B6957
:101A100043F004038B618969039201F0040104918E
:101A20000421CDE9001069462846FFF7EDF80820AB
:101A3000CDE90004694628460294FFF7E5F8002244
:101A400011462620FFF756FA2620FFF745FA06B082
:101A500070BD000000380140001002400008014045
:101A60000044004090F83A30202B22D1F9B1F2B175
:101A700090F83830012B1CD081628285C28500210C
:101A8000C163222280F83A2080F838100168CA68C1
:101A900042F48072CA6001684A6942F001024A61F8
:101AA0000068C16841F02001C1600020704701203A
:101AB000704702207047000010B50068084988424E
:101AC0000CD1012207490848FFF7CCFF0548084917
:101AD000064B027808881A54401C088010BD00008C
:101AE000003801404100002080020020FE04002058
:101AF0004800002090F83930202B18D1A9B1A2B1AC
:101B000090F83830012B12D001628284C284002107
:101B1000C163212280F8392080F838100068C1683C
:101B200041F08001C1600020704701207047022011
:101B300070477047FEE7000070B586B00024184873
:101B40000094019402940394816941F02001816121
:101B5000816901F020010491816941F004018161F2
:101B6000816901F004010491816941F010018161F2
:101B700080690C4E00F010004FF480550490002254
:101B800029463046FFF744F901200095CDE90104CC
:101B90000220039069463046FFF736F806B070BD64
:101BA00000100240001001401CB500240E480094B3
:101BB0000C49019401604721C0E9011440F2E7316A
:101BC0008461C160FFF7AAFC08B1FEF71BFD009419
:101BD000694605480194FFF763FC002801D0FEF731
:101BE00011FD1CBD00100040C00000200C4810B5C5
:101BF0000A4901604FF4E1314160002181600C220B
:101C0000C160C0E904128161C161FFF78DFE002847
:101C100003D0BDE81040FEF7F5BC10BD0038014010
:101C2000800200200C4810B50A4901604FF416519B
:101C30004160002181600C22C160C0E90412816111
:101C4000C161FFF771FE002803D0BDE81040FEF728
:101C5000D9BC10BD00440040C0020020FEE70000D7
:101C60002DE9F0478246ADF5007D89460846FEF72E
:101C7000B5FC6420FEF704FF4FF400716846FEF7E0
:101C80009EFA002480210AEB44226B465FF000009C
:101C900052F8205043F82050401C8842F8DB0120C5
:101CA000FEF7EEFE09EB44286F468026FEF798FF0C
:101CB0005FF0000508EB850157F82520002302207E
:101CC000FEF74EFF6D1CB542F4DBFEF73FFF01202F
:101CD000FEF7D6FE641CC02CD4DB0DF5007DBDE8FC
:101CE000F087704770474168006880F308880847AC
:101CF000014800787047000000800308704700002A
:101D000070B5FFF7F5FF1E495528087014D05A2802
:101D100034D01C4CAA281DD0FF2808D0FFF766FF3E
:101D2000BDE87040012218491848FFF79BBE2046C5
:101D3000BDE87040FFF7D7BFFFF758FF01221249F7
:101D40001248FFF78FFEBDE8704001221821EF20F6
:101D500000F060B90E4E4FF4C0352A462146304699
:101D6000FFF77EFF0B4A2946204600F015FA094A84
:101D700029461032304600F00FFAD8E770BD000057
:101D800000000020008000084100002080020020A8
:101D90000000020808010020FFF746B830B58FB0F8
:101DA00028216846FEF70BFA14210AA8FEF707FA65
:101DB00001210804CDE900100024029402250491B9
:101DC000CDE907504FF4E01009906846FFF7C2F9DB
:101DD0000F20CDE90A056802CDE90C4002210AA8CE
:101DE0000E94FFF7CBF80FB030BD70470148FFF7F6
:101DF000FABB0000C0000020F0B502681C4B1D4D6E
:101E00001D4E1E4F1E4C4FF0804C984209D0A042F0
:101E100007D0604505D0A84203D0B04201D0B842F7
:101E200004D122F0700E4A6842EA0E02984209D0AC
:101E3000A04207D0604505D0A84203D0B04201D0EF
:101E4000B84203D122F44075CA682A434D6922F092
:101E500080022A4302608A68C2620A6882629842EB
:101E600001D0A04201D10969016301214161F0BDA6
:101E7000002C01400004004000080040000C00401D
:101E80000034014010B5406A0021C185C184FFF7CC
:101E90009BFC10BD10B5406A0021C185202180F84F
:101EA0003A10FFF762FC10BD0168CA6822F4907214
:101EB000CA6001684A6922F001024A61202180F863
:101EC0003A10704710B590F83A10222901D002203C
:101ED00010BD82684FF480539A4201D1016921B14B
:101EE000816A9A421BD04AB10AE00268816A52684C
:101EF000C2F308020A80816A891C08E0026972B193
:101F00000268526802F07F020A70816A491C81628D
:101F1000C18D491E0904090CC18503D016E0026871
:101F20005268F1E70168CA6822F02002CA600168BD
:101F3000CA6822F48072CA6001684A6922F001020C
:101F40004A61202180F83A10FFF7B6FD002010BD4D
:101F500070B5044600680169E26821F440511143FC
:101F600001612169A0680843616908432168CA6862
:101F700041F20C639A430243CA6020684169A26936
:101F800021F44071114341611E492068884202D109
:101F9000FFF79AF801E0FFF787F800EBC00101EBCB
:101FA0000012606864218000B2FBF0F3B3FBF1F330
:101FB0006FF018067343B2FBF0F5B2FBF0F605EBD9
:101FC0008305322303EB0515B5FBF1F5B6FBF1F6FE
:101FD00005F0F00505EB0615B2FBF0F6B2FBF0F0EC
:101FE000B0FBF1F06FF01802504306EB800003EBFA
:101FF0000010B0FBF1F0216800F00F002844886069
:1020000070BD0000003801400148FFF7DFBB000051
:102010008002002070B50D4606461446FF210D488B
:10202000FEF7CDF80B4BFF201946187058709E70C4
:10203000DD700120187170192044401C5C7180080B
:102040009871EE20D8711872BDE8704009220248DC
:10205000FFF750BDFF030020800200200148FFF77A
:10206000B5BB0000C0020020044948780A7800EBA4
:102070000220401C020A0A70487070478D00002040
:10208000FEE7000030B585B00446FEF7A9FD00204C
:10209000094D012102950090CDE9031004A968467D
:1020A000FEF700FD2246002329460120FEF758FDD9
:1020B000FEF74CFD05B030BD008003080907090E8E
:1020C000002804DB00F1E02080F80014704700F0E5
:1020D0000F0000F1E02080F8141D704702E008C8EE
:1020E000121F08C1002AFAD170477047002001E092
:1020F00001C1121F002AFBD1704700000024FEF727
:102100009BFEFFF74BFEFFF78DFDFFF715FDFFF779
:102110004BFD1048FFF74EFA0F4800260660FFF708
:10212000EFFDDFF838900E4D4FF430274FF4805814
:10213000641CBC4204D341464846FEF761FE0024BD
:10214000FEF75AF928780128F2D1FEF755F82E70DB
:10215000EEE70000C00000209400002000100140C5
:102160004200002070B500231C4611E011F82350F6
:10217000055531F823502E0A05196E7051F8236069
:10218000360CAE7051F823605B1C360EEE70241DC9
:102190009442EBD370BD00007CB514460A4601465C
:1021A0001948002303604360184B8360184BC360D9
:1021B000164BDB430361164BDB43436100F0E8FB46
:1021C000114D2888C0F3C500382802D2C0F1380666
:1021D00001E0C0F17806082229466846FFF7C2FFF1
:1021E00032460C49284600F0D3FB082269462846AF
:1021F00000F0CEFB02B020460349BDE87040083134
:102200001022FFF7AFBF000028020020012345671E
:1022100089ABCDEF010000202DE9F04FD0E901623C
:10222000DFF830940024D0F800B0C7689CB04FF0BD
:10223000400A2346CD181B1D95F80280B5F800C052
:10224000ED7868F31F4C4CEA056C49F824C0641C17
:102250005345EFD306EA020127EA06031943FE4B72
:10226000CC18FC490D68159505EB0B03234406EBD0
:1022700073630D9503EA060422EA03052C43F74D28
:1022800025444C6813941B943C442C4403EB345475
:1022900004EA030526EA04073D43F14F2F448D6805
:1022A00009952A443A4404EBF23202EA040523EA8F
:1022B00002073D43EB4F2F44CD68AB4635443D44C8
:1022C00002EBB52606EA020524EA06073D43E64F7F
:1022D0002F440D690B952B443B4406EB7363189513
:1022E00003EA060522EA03073D43E04F2F444D6908
:1022F00010952C443C44129503EB345505EA030435
:1023000026EA05073C43DA4F27448C69149422449B
:102310003A4405EBF2320E9402EA050423EA02077E
:102320003C43D44F2744CC69A24634443C4402EB9E
:10233000B42404EA020625EA04073E43CE4F37449C
:102340000E6A33443B4404EB7363B64603EA040667
:1023500022EA03073E43C94F37444E6A0796354485
:102360003D4403EB3555D1F828C005EA030624EABD
:1023700005073E436244A6F524464F3E324405EB32
:10238000F23202EA050623EA0207CDF858C03E43BE
:10239000CDF864C0BA4FD1F82CC03E4464443444F4
:1023A00002EBB42404EA020625EA04073E43B54FD3
:1023B000CDF828C03744CDF868C00E6B33443B4499
:1023C00004EB7363B14603EA040622EA03073E43C3
:1023D000AD4F37444E6B35443D4403EB355505EA6C
:1023E000030724EA050C47EA0C07DFF8A0C2BC4447
:1023F0008F6B3A44624405EBF23202EA050C23EAA1
:1024000002084CEA080CDFF88882E044D1F83CC0AE
:10241000CDF818C00CEB0401414402EBB121CDF81A
:1024200044C001EA050422EA050C44EA0C04DFF882
:1024300064C2A4441B9C2344634401EBF36303EA9A
:10244000020421EA020C44EA0C04DFF84CC2A44462
:102450000E9C2C44644403EBF45404EA010523EA83
:10246000010C45EA0C05DFF834C26544DDF868C0AC
:1024700062442A4404EBB24202EA030524EA030C54
:1024800045EA0C05DFF818C2AC440D9D29446144AF
:1024900002EB313101EA040522EA040C45EA0C059D
:1024A000DFF800C2AC44129D2B44634401EBF3639C
:1024B00003EA020521EA020C45EA0C05DFF8E8C14F
:1024C0006544DDF864C064442C4403EBF45404EA2E
:1024D000010523EA010C45EA0C05DFF8D0C165448B
:1024E000DDF844C062442A4404EBB24202EA030528
:1024F00024EA030C45EA0C05DFF8B4C1AC44189D8E
:102500002944614402EB313101EA040522EA040C5A
:1025100045EA0C05DFF89CC13C44AC44079D2B44C4
:10252000634401EBF36303EA020521EA020C45EA86
:102530000C05DFF884C15A4465442C4403EBF45481
:1025400004EA010523EA010C45EA0C05DFF86CC139
:102550007144AC44624404EBB24202EA030524EA4B
:10256000030C45EA0C05DFF858C13344AC44614420
:1025700002EB313101EA040522EA040C45EA0C05BC
:10258000DFF840C165442B4401EBF36303EA020525
:1025900021EA020C45EA0C05DFF82CC15244AC4498
:1025A000099D2C44644403EBF45404EA010523EA36
:1025B000010C45EA0C05DFF814C1AC44624404EB9D
:1025C000B24202EA030524EA030C45EA0C05DFF8EF
:1025D00000C14944AC446144109D02EB31312B44AD
:1025E00081EA02056540DFF8ECC0744465442B4481
:1025F00001EB337383EA0105DFF8DCC05540654425
:102600002C440A9D03EB74542A4484EA03054D408C
:10261000DFF8C8C0394465442A4404EB324282EAF8
:102620000405DFF8BCC05D4065442944139D02EBFE
:1026300071212B4481EA0205DFF8A8C0654065449A
:102640002B440B9D01EB33732C4483EA0105554069
:102650004AE000002801002078A46AD756B7C7E8EE
:10266000DB702024EECEBDC1AF0F7CF52AC68747B4
:10267000134630A8019546FDD8988069AFF7448B82
:10268000BED75C892211906B937198FD8E4379A619
:102690002108B44962251EF640B340C0515A5E2657
:1026A000AAC7B6E95D102FD65314440281E6A1D81B
:1026B000C8FBD3E7E6CDE121D60737C3870DD5F4B4
:1026C000ED145A4505E9E3A9F8A3EFFCD9026F67B9
:1026D0008A4C2A8D4239FAFF81F6718722619D6DFD
:1026E0000C38E5FD44EABEA4DFF838C25244654424
:1026F0002C4403EB745484EA0305DFF82CC24D40EC
:1027000065442A44169D04EB3242294482EA0405BA
:102710005D40DFF818C233446544294402EB71215F
:1027200081EA0205DFF808C2654065442B44159D27
:1027300001EB33732C4483EA01055540DFF8F4C103
:102740005A4465442C4403EB745484EA0305DFF8CF
:10275000E8C14D4065442A44149D04EB32422944AB
:1027600082EA0405DFF8D4C15D4065442944079D31
:1027700002EB71212B4481EA02056540DFF8C0C1FC
:102780004C4465442B4401EB337383EA0105DFF8C5
:10279000B4C1554065442C44069D03EB74542A444F
:1027A00084EA0305DFF8A0C14D4065442A44099D31
:1027B00004EB3242294482EA0405DFF890C15D400F
:1027C00065442944159D02EB71212B4461EA0405FF
:1027D000DFF87CC1554065442B4401EBB36363EAE9
:1027E0000205DFF870C14D40544465442C44BD18C7
:1027F00003EBB45464EA0102574F5A403A442A4466
:10280000109D04EB72420D4462EA0301534F614094
:102810003944294402EBF12109EB030561EA040381
:102820004F4F53403B442B4401EBB3630BEB040588
:1028300063EA02044B4F4C403C442C44169D03EB8E
:10284000B454154464EA0102474F5A403A442A44BA
:10285000139D04EB72420D4462EA0301434F614051
:102860003944294402EBF1210EEB030561EA04032C
:102870003F4F53403B442B44069D01EBB36325443B
:1028800063EA02043B4F4C403C442C44149D03EB50
:10289000B454154464EA0102374F5A403A442A447A
:1028A000751804EB724262EA0301344E6140314410
:1028B000294402EBF1250B99314E0B4465EA0401E2
:1028C0005140314419440A9B05EBB1611C4461EA53
:1028D00002032C4E6B4033442344099C01EBB35359
:1028E000144463EA0502284E4A4032442244079CBD
:1028F00003EB7242254462EA0104244E5C403444F6
:102900002C44056802EBF424294401604168214409
:102910004160816811448160C1681944C1601CB084
:10292000BDE8F08FA9CFDE4B604BBBF670BCBFBEDD
:10293000C67E9B28FA27A1EA8530EFD4051D8804BE
:1029400039D0D4D9E599DBE6F87CA21F6556ACC432
:10295000442229F497FF2A43A72394AB39A093FC80
:10296000C3595B6592CC0C8F7DF4EFFFD15D8485FC
:102970004F7EA86FE0E62CFE144301A3A111084E80
:10298000827E53F735F23ABDBBD2D72A91D386EB7C
:102990002DE9F047054616462A680F46C2F3C501E1
:1029A00002EBC60200202A60B2EBC60F6A68C1F1D2
:1029B000400401D2521C6A6002EB56726A60A64261
:1029C00018D36818224639461830FDF7DFFB05F1A9
:1029D000080005F118018146FFF71EFC204604E0BF
:1029E00039184846FFF718FC404600F14008B0454A
:1029F000F6D90021321A3B186818BDE8F04719468D
:102A00001830FDF7C3BB0000000000000000010209
:102A10000304060708090000000001020304000087
:102A2000402A000800000020C0000000DC20000850
:102A3000002B0008C000002088120000EC200008D5
:102A40000080000000000000000000000000000006
:102A50000000000000000000000000000000000076
:102A60000000000000000000000000000000000066
:102A70000000000000000000000000000000000056
:102A800000000000000000000000FFFFEF0E0054F7
:102A9000EEEEFFFFEF0D0054EEEEFFFFEF0C0053E4
:102AA000EEEEFFFFEF0B0053EEEEFFFFEF0A0053D9
:102AB000EEEEFFFFEF090052EEEEFFFFEF1A01000E
:102AC00000EEEEFFFFEF1C0059EEEE0000000000EC
:102AD0000000000000000000D0070000000000001F
:102AE00000000000000000000000000000000000E6
:102AF0000100000010000000000000000024F400AD
:10800000580B002049810008B5EC00084DD100084C
:1080100085EA00082D8F000831FA000800000000F2
:1080200000000000000000000000000021EE000839
:108030003993000800000000B7EC0008EDF20008DA
:108040006381000863810008638100086381000880
:108050006381000863810008638100086381000870
:108060006381000863810008638100086381000860
:108070006381000863810008519000086190000846
:108080006381000863810008638100086381000840
:108090006381000863810008638100086381000830
:1080A0006381000863810008638100086381000820
:1080B0006381000879F3000889F3000863810008F0
:1080C0006381000861D1000851D100086381000874
:1080D0006381000891F9000821FA00086381000813
:1080E00063810008638100086381000863810008E0
:1080F00063810008638100086381000863810008D0
:1081000063810008638100086381000863810008BF
:10811000638100086381000899F300086381000807
:108120006381000863810008638100087190000882
:10813000DFF810D000F0C0F8004800477DFB0008D1
:10814000AFF30080580B00200648804706480047E0
:10815000FEE7FEE7FEE7FEE7FEE7FEE7FEE7FEE7F7
:10816000FEE7FEE777F3000831810008202A04DBF0
:10817000203A21FA02F00021704721FA02F3D040A0
:10818000C2F120029140084319467047D2B201E083
:1081900000F8012B491EFBD270470022F6E710B50C
:1081A00013460A4604461946FFF7F0FF204610BD65
:1081B0000EB540F2334102910021CDE900110A468B
:1081C0000B4600F02AF803B000BD000030B5041ED5
:1081D00071F1000404DB4FF00044404264EB010104
:1081E000141E73F1000405DB1C464FF0004352429D
:1081F00063EB0403994208BF904230BD10B5141ED2
:1082000073F1000408DA401C41F1000192185B414F
:108210001A4301D120F0010010BD2DE9F04D924626
:108220009B4611B1B1FA81F202E0B0FA80F220323D
:10823000904600F053F804460F4640EA0A0041EA2F
:108240000B0153465A46084313D0114653EA010026
:1082500019D0C8F140025046FFF788FF05460E4688
:1082600050465946424600F039F8084305D00120EF
:1082700004E020463946BDE8F08D0020054346EA7B
:10828000E0762C4337430A986305E40AA0EB080024
:108290000022FD0A44EA47540A3002D50020014674
:1082A000E9E7010510196941DDE90845001969414F
:1082B000BDE8F04DA2E70000064C074D06E0E0687F
:1082C00040F0010394E8070098471034AC42F6D31D
:1082D000FFF732FFF400010814010108202A04DB33
:1082E000203A00FA02F1002070479140C2F12003C9
:1082F00020FA03F319439040704770B58C1810F8BA
:10830000015B15F0070301D110F8013B2A1106D1DA
:1083100010F8012B03E010F8016B01F8016B5B1EF4
:10832000F9D12B0705D40023521E0DD401F8013BCF
:10833000FAE710F8013BCB1A921C03E013F8015B3B
:1083400001F8015B521EF9D5A142D8D3002070BDBF
:1083500070B5044600252068806800F00100F0B187
:108360002068806820F001002168886002F040FDEC
:1083700005460EE002F03CFD401B022809D9A06A28
:1083800040F01000A062E06A40F00100E0620120CD
:1083900070BD2068806800F001000028EAD100204C
:1083A000F6E770B505466C6AA06A00F05000E0B9C7
:1083B000A06A40F40070A0622068806800F4602029
:1083C000B0F5602F0DD1207B58B9A06A20F48070E1
:1083D000A062A06A00F4805018B9A06A40F00100C1
:1083E000A062204601F054FB03E0206A016B28469E
:1083F000884770BD70B505466C6AA06A40F04000C1
:10840000A062E06A40F00400E062204601F042FB16
:1084100070BD70B50446656A284601F03AFB70BD30
:1084200038B504460025002000902068806800F0E0
:10843000010080BB2068806840F0010021688860EE
:10844000164800681649B0FBF1F0009002E0009871
:10845000401E009000980028F9D102F0C9FC0546A2
:1084600013E002F0C5FC401B02280ED9A06A40F0C0
:108470001000A062E06A40F00100E06200BF00204E
:1084800084F8240000BF012038BD2068806800F017
:1084900001000028E5D00020F6E70000E4010020FC
:1084A00040420F0010B500240C4801F0BFF90B4802
:1084B00001F0F6FCC821094801F03AFC48B9074828
:1084C00001F0E9FA00F4007018B1044801F0E6FA8E
:1084D0000446024801F03CFE204610BDDC030020AB
:1084E00010B5044629480068401C28490860022C41
:1084F00001D1002010BD012C39D1B421012006F09A
:108500006DFB224800682149496888423BD91F48D1
:1085100001684068B1EB800F07D98221012006F085
:10852000B3FD0020194908602DE01848006817497C
:10853000496801EB4101884204D95A21012006F023
:10854000A3FD20E0114801684068B1EB400F04D959
:108550003221012006F098FD15E00C4801684068C2
:10856000814210D95A21012006F08EFD0BE054B94A
:10857000B421002006F032FB5A21012006F084FDD0
:108580000220034908700120B4E700009400002095
:10859000A70100203EB5FB488078152877D2DFE898
:1085A00010F076001500B7000F0168012A023A02A8
:1085B00076004D0283027600760076007600760023
:1085C0007600FF028403C60345046704ED48007982
:1085D000032806D00822EC49EC4804F08AFD032069
:1085E0003EBDE848C078012806D0022840D00328C4
:1085F00054D004287DD166E0E24840790A2803DDA2
:10860000E0484079AA2806DBDE48C178022007F05E
:10861000C7F90E20E4E7DB4A5179D07806F034FD43
:10862000D8484079DA49097888420DDDD548C079C3
:10863000D449897900EB0120D64948800220D649E7
:1086400008700A20487012E0CE484079D049097875
:1086500088420CDACB48C079CA49897900EB0120FD
:10866000CC4948800120CC4908700A20487047E076
:10867000C44840790A2803DDC2484079AA2807DBAC
:10868000C048C178022007F08BF90E20A8E7EEE37E
:10869000BC4A5179D07806F0F7FC31E0B94840790E
:1086A0000A2803DDB7484079AA2806DBB548C17817
:1086B000022007F075F90E2092E7B24A5179D0787E
:1086C00006F0E2FC1CE0AF4840790A2803DDAD4823
:1086D0004079AA2807DBAB48C178022007F060F98F
:1086E0000E207DE705E0A74A5179D07806F0CCFC52
:1086F00006E00822A949A54804F0FBFC04206FE726
:1087000000BFA048C178012007F04AF9002067E7C0
:108710009C484079322806DB0822A1499B4804F096
:10872000E8FC08205CE797480079032806D0082277
:108730009549964804F0DDFC032051E79148C07844
:10874000012802D002282CD115E08E484179012061
:1087500000F0EEFB8B48407960B18A48C0798949C6
:10876000897900EB01208B49488001208A490870F3
:108770000A2048701CE083484179012000F00AFC7F
:108780008048407960B17F48C0797E49897900EBA3
:1087900001208049488002207F4908700A204870E3
:1087A00006E008227D49794804F0A3FC042017E77D
:1087B00000BF08227B49754804F09BFC00200FE7AE
:1087C000704840796430642804DB6E484079643036
:1087D000DC2806DB082272496C4804F08AFC082079
:1087E000FEE668480079012806D0082266496748F5
:1087F00004F07FFC0320F3E66248C07830B1012822
:108800000DD0022814D0032824D11AE05D4A5279F1
:108810006432D1B25B4AD07806F0E0F921E0594ADF
:1088200052796432D1B2574AD07806F0D7F918E0BD
:10883000544A52796432D1B2524AD07806F0CEF915
:108840000FE0504A52796432D1B24E4AD07806F0E5
:10885000C5F906E0082251494C4804F04AFC0420BE
:10886000BEE600BF08225049484804F042FC002000
:10887000B6E64448C078012806D0022811D0032863
:108880001CD004287DD19FE03E48007930B10822F9
:108890003D493E4804F02DFC0320A1E606F0C2FA53
:1088A000A6E03848007930B108223749374804F04B
:1088B00020FC032094E606F05BFB99E03148007948
:1088C000012806D008223049304804F012FC032069
:1088D00086E6002035490870354908702E49087031
:1088E00048702848407930B101280FD0022818D0AC
:1088F00003282CD120E0002204212E4802F071FA36
:10890000002202212B4802F06CFA27E00122042108
:10891000284802F066FA01220221264802F061FA94
:108920001CE001220421234802F05BFA002202210C
:10893000204802F056FA11E0002204211D4802F0FE
:1089400050FA012202211B4802F04BFA06E00822ED
:1089500019490E4804F0CDFB102041E600BF09483C
:108960004079164948710749497901F1FF00C1175B
:1089700000EB91718910114A917109220F49034846
:108980001EE02EE070050020A4000020B0040020AE
:10899000A10100207C00002096010020AC000020F6
:1089A000CC000020E4000020D40000209D01002025
:1089B0009E01002000100140EC000020F400002087
:1089C00004F097FB00200BE6F948007930B108224B
:1089D000F849F94804F08DFB032001E606F0D6FAC9
:1089E00006E00822F549F44804F083FB0420F7E58B
:1089F00000BF0020F4E5EE48C078012802D106F05F
:108A000021FB06E00822ED49EB4804F072FB04204C
:108A1000E6E50020E4E5E648C078012805D10A2211
:108A2000E749E54804F065FB06E00822E349E2482F
:108A300004F05FFB0420D3E50020D1E5DC48C078DA
:108A400001282AD1DA480079022806D00822D9491B
:108A5000D94804F04EFB0320C2E5D54880791E2892
:108A600003DDD3488079B42806DBD148417906205C
:108A700006F096FF0A20B3E5CD4A9179507906F0C9
:108A800003FBCB4A9179507900F05AFEC8484179EE
:108A9000052006F085FF0B20A2E50822C749C6483D
:108AA00004F027FB04209BE5C148C078012802D0D0
:108AB00002286CD132E0BE48007930B10822BD49AD
:108AC000BD4804F016FB03208AE5BE480078012863
:108AD0000DD100F0EBFCBC4909780844C4B2214632
:108AE000012006F0D1FA0120B849487110E0B548DC
:108AF000007802280CD100F0D9FCB3490978081A93
:108B0000C4B22146012006F0BFFA0220AF494871E5
:108B10000922AE49A84804F0ECFA3FE0A4480079E5
:108B2000022806D00822A349A34804F0E2FA032051
:108B300056E59F48407901280ED19D488079A24A88
:108B400012781044C1B2012006F09EFA984881794B
:108B5000012000F03BFD11E09548407902280DD13D
:108B600093488179022000F031FD91488079964A3E
:108B70001278101AC1B2012006F086FA8C484079AA
:108B80009249487109228C4804F0B3FA06E00822A1
:108B90008A49894804F0ADFA042021E500BFB4E118
:108BA0008348007930B108228249834804F0A1FA51
:108BB000032015E57E48C078072859D2DFE800F089
:108BC000580412202E3C4A004FF47A700221804A49
:108BD0000123CDE9002102906922A0217D4802F005
:108BE000C3FD4CE04FF47A7002217B4A0123CDE9AA
:108BF000002102900022A021764802F0B5FD3EE05F
:108C00004FF47A700221754A0123CDE900210290C8
:108C10001A46A0216F4802F0A7FD30E04FF47A70A9
:108C200002216F4A0123CDE9002102901A46A021BA
:108C3000684802F099FD22E04FF47A700221694AF7
:108C40000123CDE9002102901A46A021614802F0DB
:108C50008BFD14E04FF47A700221634A0123CDE9C1
:108C6000002102900022A0215A4802F07DFD06E07A
:108C700008225249504804F03CFA0420B0E400BFF6
:108C80004B48C078594948714949C97801F5817004
:108C9000C11700EB9171C1F38701544A9171092208
:108CA0005249454804F025FA2FE14148C07801288F
:108CB00002D0022832D124E03D480079112806D0A4
:108CC00008223C493C4804F014FA032088E40020C0
:108CD000474908700DE0364945480078401D085C5A
:108CE0004449434A1278885441480078401C40491E
:108CF00008703F4800781128EDDB3E4800F0E8FCA2
:108D000013E02B48007930B108222A492A4804F0A0
:108D1000F0F9032064E406F047F906E00822274949
:108D2000254804F0E6F904205AE400BFEDE02048AD
:108D3000C078012802D002286FD161E01C48007978
:108D400018B11B480079FF2806D1082219491A4892
:108D500004F0CFF9032043E40020254908700DE01A
:108D6000134923480078401D095C2348204A1278A3
:108D700081541F480078401C1D4908700C48007938
:108D80001B4909788842EBDC094801791A4800F050
:108D900055FC0748007919494871084600F02CF93C
:108DA000164988710922044804F0A3F93CE034E034
:108DB00070050020A4000020B0040020AC000020BA
:108DC0008C0100209B010020A1010020FD0000205B
:108DD00080010020AC0200208201002084010020DC
:108DE00086010020880100208A0100200601002061
:108DF000B401002005070020270700200F010020F4
:108E00004348007930B108224249434804F071F9DF
:108E100003203BE406F042F806E008223F493E48C2
:108E200004F067F9042031E400BF6EE03848C078F0
:108E300030B108223949384804F05BF9042025E4B0
:108E40003348007930B108223249334804F051F9EF
:108E500003201BE4552000F09BFB012001F02CFDBA
:108E600002F0C2FE0221182006F09AFD4DE045E016
:108E70002748C078012802D0022836D11AE02448B9
:108E8000007930B108222349234804F032F9032045
:108E900012E40120224908700846007821494871EF
:108EA000084600F0A9F81F49887109221A4804F001
:108EB00020F921E01648007930B1082215491648FA
:108EC00004F017F903200CE4002015490870084647
:108ED000007814494871084600F08EF811498871ED
:108EE00009220D4804F005F906E008220B490A485A
:108EF00004F0FFF804200AE400BF06E008220A4953
:108F0000054804F0F6F805200CE400BF002009E451
:108F100070050020A4000020B0040020AC00002058
:108F2000A701002020010020B400002000BFFEE7C0
:108F3000F8B507460C462546142D25DC20200023D5
:108F4000142219460090284607F0BCF8C6B201204A
:108F500000F0ACFA0D49087008460078FF2801D1EE
:108F6000002008704DB90A480078084A1278104469
:108F7000C1B2384606F088F806E005480078801B44
:108F8000C1B2384606F080F8F8BD00005600002057
:108F9000A1010020F8B507460C462546142D25DC16
:108FA0002D200023142219460090284607F08AF845
:108FB000C6B2022000F07AFA0D490870084600781F
:108FC000FF2801D1002008704DB90A480078084AEE
:108FD0001278801AC1B2384606F056F806E0054805
:108FE00000783044C1B2384606F04EF8F8BD0000B3
:108FF00057000020A101002001460220114A1070F4
:109000000CE010480078085C0F4A126810440E4AC1
:1090100010600C480078401C0A4A10700879401D06
:10902000084A12789042ECDC0879C01C064A1268A3
:10903000B2FBF0F0054A10700020034A10600348AC
:1090400000787047CC010020D0010020D40100201E
:1090500010B5024801F0D0F910BD000098030020BF
:1090600010B5024801F0C8F910BD000054030020FB
:1090700010B5024801F0C0F910BD00006C040020DA
:1090800030B590F840500124AC40C56B6C6004686A
:1090900063604468102C04D10468A2600468E16035
:1090A00003E00468A1600468E26030BD10B5974831
:1090B0000079083096490988884275D1934800782C
:1090C000FF2872D191484078FF28FAD19048008853
:1090D000801E8E49085CEE2868D18D480088401EAD
:1090E000085CEE28F8D100208A49086002208A49ED
:1090F00008800DE0854888490988405C85490968F1
:1091000008448449086084480088401C82490880DB
:109110007E480079401D804909888842EADC7B4806
:109120000079C01C7B490968B1FBF0F178480088E0
:10913000C01E764A105C814239D1002076490880F1
:109140000CE0724874490988405C7449724A12887C
:10915000885471480088401C6F4908806E48008818
:109160006B4909888842ECDB694800786C490870D3
:109170000020674908806849088009E000206349A9
:10918000654A1288885464480088401C62490880F7
:1091900061480088B0F5897FF0DD00205D490860F6
:1091A00001206049087010BD5EE03EE01EE0002036
:1091B000574908805849088009E000205349564A19
:1091C0001288885454480088401C534908805248EB
:1091D0000088B0F5897FF0DD00204E490860082244
:1091E0005149524803F085FF0220DCE7002048493E
:1091F00008804949088009E000204449464A12880D
:10920000885445480088401C4349088042480088EB
:10921000B0F5897FF0DD00203E490860082244490E
:10922000424803F066FF0620BDE700203849088069
:109230003949088009E000203449374A12888854A7
:1092400035480088401C3449088033480088B0F510
:10925000897FF0DD00202F49086008223549334816
:1092600003F047FF07209EE72948008800284ADDD1
:1092700027480088022821DA24480078FF2842D0B5
:109280000020234908802449088009E000211F4864
:10929000214A1288815420480088401C1E490880B9
:1092A0001D480088B0F5897FF0DD0020194908606D
:1092B000082220491D4803F01CFF24E013480078D1
:1092C000FF2803D111484078FF281CD00020104906
:1092D00008801149088009E000210C480E4A1288D4
:1092E00081540D480088401C0B4908800A480088BA
:1092F000B0F5897FF0DD00200649086008220D499D
:109300000A4803F0F6FE00204DE70000B0050020FB
:10931000620000205C000020B201002070050020E7
:109320005A000020590000209C000020B0040020BA
:10933000BC000020C4000020704770470021074A8D
:10934000D1610749096941F00401054A11611146DB
:10935000096941F0400111617047000038070020A1
:10936000002002400021074AD1610749096941F004
:109370000201054A116111464861096941F0400145
:109380001161704738070020002002400022054B81
:10939000DA61054A126942F00102034B1A61018049
:1093A00070470000380700200020024000201E49BE
:1093B000C96801F0100139B11C49C96941F00201C5
:1093C0001A4AD16140F010001749C96801F0040140
:1093D00039B11649C96941F00101144AD16140F01F
:1093E00004001149C96901F0010169B10F49C96956
:1093F00041F004010D4AD16100BF0B49C96921F058
:109400000101094AD16100BF00BF40F20111884249
:1094100006D10549C96921F00101034AD16101E082
:109420000149C86000BF7047002002403807002093
:1094300070B5044601F0DCFC054609E0601C38B15B
:1094400024B101F0D5FC401BA04201D9032070BD1E
:109450001248C06800F001000028EFD10F48C06832
:1094600000F0200020B100BF20200C49C86000BFE0
:109470000A48C06800F0100048B90848C06900F008
:10948000010020B90548C06800F0040018B1FFF7DA
:109490008DFF0120DBE70020D9E70000002002401B
:1094A000014908787047000000800308014601293F
:1094B00002D1044A107803E0022901D1024A10784F
:1094C000704700000098030800A0030810B5164874
:1094D000007816490870012001F0EEF91348007871
:1094E000FF2801D1002010BD00201149087012E0B2
:1094F0000F4800780F4901EBC00090F808080E49AA
:109500000B4A12788854012001F0D6F908480078F7
:10951000401C0749087006480078044909788842C9
:10952000E6DB02480078DEE700880308A20100209D
:10953000AA010020008003081607002010B50020B3
:109540000D49087012E00C4800780C4901EBC0008E
:1095500090F800080A49084A12788854012001F05E
:10956000ABF905480078401C0349087002480078B0
:109570001128E8DB10BD0000AC01002000A00308AA
:10958000F4060020014908787047000000900308A5
:1095900010B586B0044601F05DFA002002900A483A
:1095A0000490012005900020019001A902A801F07B
:1095B00097F9224600230449012001F0F3F901F054
:1095C000E7F906B010BD00000080030830B585B093
:1095D00005460C4601F03EFA012D12D10020019003
:1095E000144803900120049000200090694601A8CF
:1095F00001F076F9224600230E49012001F0D2F94C
:1096000014E0022D12D1002001900B48039001209C
:10961000049000200090694601A801F061F92246FB
:1096200000230549012001F0BDF900BF01F0B0F9A8
:1096300005B030BD0098030800A0030870B586B0DF
:1096400004460D461F48057001F004FA0020029000
:109650001D480490012005900020019001A902A856
:1096600001F03EF91748027800231749012001F064
:1096700099F9012001F020F900201449087016E042
:1096800012480078265C114800780F4A08320823F7
:1096900003FB002132460023012001F083F9012061
:1096A00001F00AF909480078401C08490870074889
:1096B0000078044909788842E2DB01F069F906B0D4
:1096C00070BD0000A201002000880308AB0100204B
:1096D00030B585B0044601F0BDF900200190164870
:1096E00003900120049000200090694601A801F039
:1096F000F7F800201149087015E010480078255C43
:109700000E4800780C4A082303FB00212A46002358
:10971000012001F047F9012001F0CEF80748007858
:10972000401C06490870054800781128E5DB01F067
:109730002FF905B030BD000000A80308AD010020DE
:1097400030B585B005460C460C48047001F082F92E
:10975000002001900A48039001200490002000900E
:10976000694601A801F0BCF8224600230449012003
:1097700001F018F901F00CF905B030BDA10100208D
:109780000090030810B5FEF78DFE10490860012215
:109790000F49104800F01CFC0E4800F0F9FC0C4882
:1097A0000068C0EB0010C0000B4908600846006864
:1097B00006490968B0FBF1F00749086008460088CF
:1097C000064908800846008810BD000048000020B7
:1097D000400000203C0400204C00002044000020F9
:1097E00070B540F2B45500BF0D4800F059FB64213C
:1097F0000B4800F09DFA0A4800F050F9094908802A
:1098000008460088C0EB0010C400B4FBF5F406481D
:109810000460008800EB400101EBC00080B270BD25
:109820000C0400202C00002030000020F8B5044675
:1098300000260020009000BF94F82400012801D1E8
:109840000220F8BD012084F8240000BF2046FEF766
:109850007FFD0646002E62D1A06A20F4885040F0B9
:109860000200A062022002F0E1F930490968B1FB70
:10987000F0F04000009002E00098401E0090009838
:109880000028F9D12046FEF7CBFD2068806840F023
:1098900008002168886001F0ABFA054611E001F08C
:1098A000A7FA401B0A280CD9A06A20F0020040F059
:1098B0001000A06200BF002084F8240000BF012037
:1098C000BFE72068806800F008000028E7D1206822
:1098D000806840F004002168886001F089FA05463C
:1098E00011E001F085FA401B0A280CD9A06A20F08B
:1098F000020040F01000A06200BF002084F82400A5
:1099000000BF01209DE72068806800F00400002867
:10991000E7D1A06A20F0020040F00100A06200BF81
:10992000002084F8240000BF30468AE7E4010020CC
:1099300038B5024600230020009000BF92F82400B2
:10994000012801D1022038BD012082F8240000BF87
:109950004868072812D21068406B0C79641E04EB2B
:1099600084051F24AC40A0430D796D1E05EB8505D1
:109970000C68AC4020431468606327E048680D28F9
:1099800012D21068006B0C79E41F04EB84051F24CD
:10999000AC40A0430D79ED1F05EB85050C68AC408C
:1099A00020431468206311E01068C06A0C790D3CF4
:1099B00004EB84051F24AC40A0430D790D3D05EB5D
:1099C00085050C68AC4020431468E06208680A28EA
:1099D00012D31068C0680C780A3C04EB44050724D5
:1099E000AC40A0430D780A3D05EB45058C68AC40C2
:1099F00020431468E0600FE0106800690C7804EB05
:109A000044050724AC40A0430D7805EB45058C6860
:109A1000AC402043146820610868102802D0086810
:109A2000112827D1174C1068A0421ED110688068F9
:109A300000F40000F0B91068806840F40000146879
:109A4000A0600868102815D10F4800680F4CB0FBC3
:109A5000F4F000EB80004000009002E00098401E0F
:109A6000009000980028F9D104E0906A40F02000AE
:109A70009062012300BF002082F8240000BF184636
:109A800061E7000000240140E401002040420F0093
:109A90007047704770470146886A704701460868FA
:109AA000C06C70472DE9F0410446002700250026D0
:109AB000A84614B90120BDE8F081A06810B1207D4E
:109AC00000B100BFA06A30B90020E06284F8240031
:109AD000204600F097F82046FEF73AFC0746A06AB9
:109AE00000F01000002873D1002F7ED1A06A20F46E
:109AF000885040F00200A0623F4AD4E90001904241
:109B000008D1E069B0F5402F02D14FF4002002E007
:109B1000E06900E0E0690143207B41EA4000064340
:109B2000A068B0F5807F02D0A068012802D14FF470
:109B3000807000E000200543207D012811D1207BAA
:109B400038B9A069401E4FF4006141EA4030054336
:109B500007E0A06A40F02000A062E06A40F0010047
:109B6000E0622068406820F469402843216848602A
:109B70002068806821490840304321688860A068D7
:109B8000B0F5807F02D0A068012802D14FF4807028
:109B900000E00020B0F5807F03D1208A401E4FEA0C
:109BA00000582068C06A20F4700040EA080021686C
:109BB000C8622068806812490840B04209D100207C
:109BC000E062A06A20F0020040F00100A06211E013
:109BD0000BE0A06A20F0020040F01000A062E06AF2
:109BE00040F00100E062012704E0A06A40F01000AC
:109BF000A062012738465EE7003C0140FDF7E1FF27
:109C0000FE0E1FFF10B586B00446002002900390A0
:109C1000049005903E49206888420DD100BF3D4820
:109C2000806940F400703B4988610846806900F40F
:109C30000070019000BF69E037492068884223D155
:109C400000BF3448806940F480603249886108462A
:109C5000806900F48060019000BF00BF00BF08462B
:109C6000806940F0100088610846806900F01000AB
:109C7000019000BF00BF012002900320039002A9C1
:109C8000264800F0FFFE41E02549206888423DD18A
:109C900000BF2048806940F400401E4988610846A2
:109CA000806900F40040019000BF00BF00BF08467B
:109CB000806940F0040088610846806900F0040073
:109CC000019000BF00BF022002900320039002A970
:109CD000144800F0D7FE144814490860002048607A
:109CE0000021124881608021C16049000161890022
:109CF000416100218161C16100F04AFD08B1FFF7B7
:109D00001CFB00BF09482062446200BF06B010BDC2
:109D100000240140001002400028014000100140D2
:109D2000003C014000080140580402406C0400203F
:109D3000F8B504460D46002600200090002701F0EB
:109D400057F806462068806800F4807050B1A06A19
:109D500040F02000A06200BF002084F8240000BF73
:109D60000120F8BD2068406800F48070F8B92068D0
:109D7000C06A00F47000D0B912E0681C80B125B14F
:109D800001F036F8801BA8420AD9A06A40F004000E
:109D9000A06200BF002084F8240000BF0320E0E799
:109DA0002068006800F002000028E6D050E00220A1
:109DB00001F03CFF36490968B1FBF0F02168096900
:109DC000344A114091B92168C9689211114069B9AA
:109DD00021680969304A114031B92168C968921176
:109DE000114009B9142117E0292115E021680969FA
:109DF000294A114021B92168C9689211114041B125
:109E000021680969254A114029B92168C9681140AA
:109E100009B9542100E0FC2100FB01F715E0681CA2
:109E200080B125B100F0E4FF801BA8420AD9A06AE6
:109E300040F00400A06200BF002084F8240000BFAE
:109E400003208EE70098401C00900098B842E6D3AB
:109E50006FF0120021680860A06A40F40070A062F0
:109E60002068806800F46020B0F5602F0DD1207B61
:109E700058B9A06A20F48070A062A06A00F48050F3
:109E800018B9A06A40F00100A062002069E7000054
:109E9000E40100202449922492244912499224008A
:109EA00070B50446002500BF94F82400012801D1B4
:109EB000022070BD012084F8240000BF2046FEF778
:109EC000AFFA0546002D77D1A06A40F20121884300
:109ED00040F48070A0623C492068884208D13B4829
:109EE000006800F4702008B9012002E0002000E0C2
:109EF000012078B1A06A20F48010A0622068406838
:109F000000F4806000B3A06A20F4005040F4805058
:109F1000A06219E0A06A40F48010A0622B49091FDA
:109F20002068884203D028492068884204D1274805
:109F3000006800F4806000E0002028B1A06A20F4EE
:109F4000005040F48050A062A06A00F4805020B11C
:109F5000E06A20F00600E06201E00020E06200BF5D
:109F6000002084F8240000BFC01E2168086020681B
:109F7000806800F46020B0F5602F16D11249206887
:109F8000884208D11148006800F4702008B9012007
:109F900002E0002000E0012038B12068806840F431
:109FA000A000216888600CE006E02068806840F42A
:109FB00080102168886004E000BF002084F824003D
:109FC00000BF284675E70000002801400424014036
:109FD0002DE9F04104460D461646002757492068F2
:109FE000884203D056492068884205D15348001D55
:109FF000006800F4702000E0002000287ED100BF3F
:10A0000094F82400012802D10220BDE8F08101204B
:10A0100084F8240000BF2046FEF702FA0746002F0E
:10A020006DD1A06A40F60161884340F48070A0625F
:10A0300043492068884209D14048001D006800F467
:10A04000702008B9012002E0002000E0012078B172
:10A05000A06A20F48010A0622068406800F480604C
:10A0600000B3A06A20F4005040F48050A06219E0D0
:10A07000A06A40F48010A06230492068884203D072
:10A080002F492068884205D12C48001D006800F443
:10A09000806000E0002028B1A06A20F4005040F465
:10A0A0008050A062A06A00F4805020B1E06A20F0E5
:10A0B0000600E06201E00020E06200BF002084F8BA
:10A0C000240000BF1F48216A88621F48216AC862B5
:10A0D0001E48216A08636FF002002168086020684A
:10A0E000806840F4807021688860226802F14C0129
:10A0F00033462A46206A00F091FB01E01AE014E0A2
:10A100002068806800F46020B0F5602F06D12068D8
:10A11000806840F4A000216888600CE020688068B6
:10A1200040F480102168886005E000BF002084F8BA
:10A13000240000E00127384667E7000000240140C2
:10A1400000280140A383000813840008F583000859
:10A1500070B50446002500BF94F82400012801D101
:10A16000022070BD012084F8240000BF2046FEF7C5
:10A17000EFF805462DB9A06A20F4885040F00100A0
:10A18000A06200BF002084F8240000BF2846E8E752
:10A1900070B50446002500BF94F82400012801D1C1
:10A1A000022070BD012084F8240000BF2046FEF785
:10A1B000CFF80546ADB92068806820F4807021682A
:10A1C0008860206A00F014F8054635B9A06A20F4CA
:10A1D000885040F00100A06203E0A06A40F0400017
:10A1E000A06200BF002084F8240000BF2846D8E702
:10A1F0000146002291F82100022808D0042088633B
:10A2000000BF002081F8200000BF012070470868CF
:10A21000006820F00E000B6818600868006820F0E5
:10A2200001000B68186091F8403001209840CB6B1A
:10A230005860012081F8210000BF002081F8200033
:10A2400000BF1046E2E7000070B50446002594F810
:10A250002100022803D00420A0630125C1E020686A
:10A26000006820F00E00216808602068006820F077
:10A270000100216808605C492068884252D95A4927
:10A2800078392068884201D1012047E05649643975
:10A290002068884201D1102040E05349503920689D
:10A2A000884201D1801539E04F493C392068884205
:10A2B00001D1801432E04C4928392068884202D10B
:10A2C0004FF480302AE0484914392068884202D18E
:10A2D0004FF4801022E044492068884201D14004B4
:10A2E0001CE042492068884201D1012016E03F4924
:10A2F00014312068884201D110200FE03B492831F9
:10A300002068884201D1801508E038493C31206836
:10A31000884201D1801401E04FF480303349091F95
:10A32000086051E0304978392068884201D1012025
:10A3300047E02D4964392068884201D1102040E06F
:10A34000294950392068884201D1801539E02649D1
:10A350003C392068884201D1801432E022492839F2
:10A360002068884202D14FF480302AE01E49143917
:10A370002068884202D14FF4801022E01A492068F8
:10A38000884201D140041CE018492068884201D16C
:10A39000012016E0154914312068884201D11020AF
:10A3A0000FE0124928312068884201D1801508E069
:10A3B0000E493C312068884201D1801401E04FF4FD
:10A3C0008030094980394860012084F8210000BFAD
:10A3D000002084F8200000BF606B10B12046616B44
:10A3E0008847284670BD00008000024008040240F3
:10A3F000014691F82100704770B50446E06B05688E
:10A400002068066894F840100420884028400028FE
:10A4100075D006F004000028FAD02068006800F02B
:10A42000200028B92068006820F004002168086036
:10A43000D5492068884254D9D34978392068884260
:10A4400001D1042049E0D04964392068884201D113
:10A45000402042E0CC4950392068884201D10015A3
:10A460003BE0C9493C392068884202D14FF4804022
:10A4700033E0C54928392068884202D14FF4802052
:10A480002BE0C14914392068884202D14FF4800082
:10A4900023E0BD492068884201D1C0041DE0BB49CA
:10A4A0002068884201D1042017E0B849143120689F
:10A4B000884201D1402010E0B44928312068884208
:10A4C00001D1001509E0B1493C312068884202D130
:10A4D0004FF4804001E04FF48020AC49091F086030
:10A4E00054E0A94978392068884201D104204AE023
:10A4F000A54964392068884202D1402043E04CE0FD
:10A50000A14950392068884201D100153BE09E499D
:10A510003C392068884202D14FF4804033E09A49A8
:10A5200028392068884202D14FF480202BE09649D8
:10A5300014392068884202D14FF4800023E0924908
:10A540002068884201D1C0041DE0904920688842FB
:10A5500001D1042017E08D4914312068884201D1CF
:10A56000402010E0894928312068884201D1001537
:10A5700009E086493C312068884202D14FF480408E
:10A5800001E04FF48020804980394860E06A00286B
:10A5900002D02046E16A8847F4E094F84010022097
:10A5A00088402840002871D006F002000028FAD028
:10A5B0002068006800F0200040B92068006820F0A2
:10A5C0000A0021680860012084F821006E49206893
:10A5D000884254D96C4978392068884201D10220D8
:10A5E00049E0694964392068884201D1202042E06D
:10A5F000654950392068884201D140153BE06249E5
:10A600003C392068884202D14FF4005033E05E4963
:10A6100028392068884202D14FF400302BE05A4993
:10A6200014392068884202D14FF4001023E05649C3
:10A630002068884201D180041DE054492068884286
:10A6400001D1022017E0514914312068884201D11C
:10A65000202010E04D4928312068884201D1401562
:10A6600009E04A493C312068884202D14FF4005049
:10A6700001E04FF400304549091F086054E04249A9
:10A6800078392068884202D102204AE057E03E49EA
:10A6900064392068884201D1202042E03A4950398B
:10A6A0002068884201D140153BE037493C39206899
:10A6B000884202D14FF4005033E0334928392068F2
:10A6C000884202D14FF400302BE02F491439206822
:10A6D000884202D14FF4001023E02B4920688842C1
:10A6E00001D180041DE029492068884201D102205F
:10A6F00017E0264914312068884201D1202010E05B
:10A70000224928312068884201D1401509E01F49BB
:10A710003C312068884202D14FF4005001E04FF4F0
:10A72000003019498039486000BF002084F82000BB
:10A7300000BFA06A30B32046A16A884722E094F89F
:10A740004010082088402840E0B106F00800C8B159
:10A750002068006820F00E002168086094F840101E
:10A7600001208840E16B48600120A06384F821004B
:10A7700000BF002084F8200000BF206B10B12046ED
:10A78000216B884770BD0000800002400804024031
:10A790000146002209B9012070471E4B0868984203
:10A7A0000BD21D4B0868C01A1423B0FBF3F08000D5
:10A7B000086419480838C8630AE0164B0868C01ACC
:10A7C0001423B0FBF3F08000086412480838C86313
:10A7D000022081F821000868026843F6F070824385
:10A7E000D1E901031843CB6818430B6918434B693F
:10A7F00018438B691843CB69184302430868026009
:10A8000000208863012081F82100002081F82000C9
:10A8100000BFC1E708040240080002402DE9F041F2
:10A8200004460D4616461F464FF0000800BF94F838
:10A830002000012802D10220BDE8F081012084F827
:10A84000200000BF94F8210001282CD1022084F8B8
:10A8500021000020A0632068006820F0010021682A
:10A8600008603B46324629462046FEF709FCE06A6E
:10A8700030B12068006840F00E00216808600BE0ED
:10A880002068006820F004002168086020680068E3
:10A8900040F00A00216808602068006840F001006C
:10A8A0002168086006E000BF002084F8200000BF97
:10A8B0004FF002084046BFE770B5044600F098FA32
:10A8C00006462546681C10B104480078054400BFC0
:10A8D00000F08EFA801BA842FAD370BDE001002080
:10A8E0002DE9F04104460E460127002500BF264809
:10A8F000007E012802D10220BDE8F081012022491A
:10A90000087600BF2068022813D14CF25030FEF7C1
:10A910008FFD90BB0120FEF711FD4CF25030FEF789
:10A9200087FD07461948006920F0040017490861AF
:10A9300023E04CF25030FEF77BFDF0B94FF0FF30D2
:10A940003060A56812E02846FEF70CFD4CF250304E
:10A95000FEF76EFD07460D48006920F002000B4926
:10A9600008610FB1356007E005F50065D4E9021014
:10A9700001EBC020A842E6D800BF00BF002002497A
:10A98000087600BF3846B7E73807002000200240AD
:10A990000348006940F080000149086100207047C9
:10A9A000002002402DE9FE4F05468B46174698468B
:10A9B000012600240020029000BF2448007E0128C8
:10A9C00002D10220BDE8FE8F01202049087600BF99
:10A9D0004CF25030FEF72CFD064686BB012D02D10D
:10A9E0000120029006E0022D02D10220029001E037
:10A9F0000420029000241EE02201B946C2464846C7
:10AA00005146FDF7B3FB80B20190022000FB04B079
:10AA100000900199FEF7BAFC4CF25030FEF708FDA9
:10AA200006460B48006920F001000949086106B19B
:10AA300004E0601CC4B202988442DDDB00BF00BFAA
:10AA400000200249087600BF3046BBE738070020E7
:10AA50000020024000200849096901F0800151B13D
:10AA60000649054A5160064951601146096901F0DD
:10AA7000800101B101207047002002402301674599
:10AA8000AB89EFCD2DE9F847024600239C467BE1D8
:10AA90004FF0010808FA03F4D1F8008008EA040036
:10AAA000A0427DD1DFF8F4A2D1F80480A8EB0A0916
:10AAB000D0453AD014DCB8F1030F50D009DCB8F11E
:10AAC000000F31D0B8F1010F1CD0B8F1020F49D1FD
:10AAD00020E0B8F1110F18D0B8F1120F42D11EE0EA
:10AAE000B9F5881F25D006DCB9F5803F20D0B9F52F
:10AAF000801F37D11AE0B9F5001F18D0B9F5041F2F
:10AB000030D117E0D1F80CC02DE0D1F80C8008F15D
:10AB1000040C28E0D1F80C8008F1080C23E0D1F8EF
:10AB20000C8008F10C0C1EE000BF00BF00BF00BF8E
:10AB300000BF00BFD1F80880B8F1000F02D14FF07C
:10AB4000040C0BE0D1F80880B8F1010F03D14FF0ED
:10AB5000080C146102E04FF0080C546103E04FF060
:10AB6000000C00E000BF00BFFF2801D8904601E0C4
:10AB700002F104084646FF2802D84FEA830803E0A2
:10AB8000A3F108084FEA88084746D6F800804FF03E
:10AB90000F0909FA07F928EA09080CFA07F900E091
:10ABA0007AE048EA0908C6F80080D1F8048008F085
:10ABB0008058B8F1805F6FD100BFDFF8E481D8F82A
:10ABC000188048F00108DFF8D891C9F81880C84605
:10ABD000D8F8188008F00108CDF8008000BF00BF49
:10ABE0004FEAB9384FEA930958F829504FEA837869
:10ABF0004FEA18794FF00F0808FA09F825EA080516
:10AC0000DFF8A081424502D14FF0000824E0DFF8D0
:10AC10009881424502D14FF001081DE0DFF88C8198
:10AC2000424502D14FF0020816E0DFF88481424528
:10AC300002D14FF003080FE0DFF87881424502D1DE
:10AC40004FF0040808E0DFF87081424502D14FF070
:10AC5000050801E04FF006084FEA83794FEA1979B9
:10AC600008FA09F848EA0505DFF850814FEA930928
:10AC700048F82950D1F8048008F48038B8F5803FAE
:10AC80000BD1DFF83C81D8F8008048EA0008DFF8F3
:10AC90003091C9F800800AE075E0DFF82481D8F827
:10ACA000008028EA0008DFF81891C9F80080D1F880
:10ACB000048008F40038B8F5003F0ED1DFF80081B9
:10ACC00008F10408D8F8008048EA0008DFF8F0909E
:10ACD00009F10409C9F800800DE0DFF8E48008F10B
:10ACE0000408D8F8008028EA0008DFF8D49009F1B9
:10ACF0000409C9F80080D1F8048008F48018B8F578
:10AD0000801F0ED1DFF8B88008F10808D8F800805D
:10AD100048EA0008DFF8A89009F10809C9F800809E
:10AD20000DE0DFF89C8008F10808D8F8008028EAD8
:10AD30000008DFF88C9009F10809C9F80080D1F803
:10AD4000048008F40018B8F5001F0ED1DFF87080F9
:10AD500008F10C08D8F8008048EA0008DFF8609095
:10AD600009F10C09C9F800800DE0DFF8548008F102
:10AD70000C08D8F8008028EA0008DFF8449009F1B0
:10AD80000C09C9F800805B1CD1F8008028FA03F890
:10AD9000B8F1000F7FF47CAEBDE8F8870000111019
:10ADA0000010024000080140000C0140001001406A
:10ADB0000014014000180140001C0140080001403F
:10ADC00000040140024693680B400BB1012000E0F3
:10ADD00000207047C2680A400AB1416100E0016189
:10ADE00070470AB1016101E00B0403617047000084
:10ADF0000148006870470000D80100207047704784
:10AE00002DE9F84F0446206847692068D0F804808F
:10AE1000002594F83E90C7F3002070B1C8F30020DD
:10AE200058B145F001056FF48070216848612068D1
:10AE3000006840F4004021680860C7F3402040B13A
:10AE4000C8F3002028B145F002056FF400702168B6
:10AE50004861C7F3802070B3C8F3002058B3CA46D6
:10AE6000B4F82AB094F83D60206B0090BAF1200F3E
:10AE70000FD1BBF1000F0CD1212E06D0292E04D00A
:10AE8000282E06D10098212803D1204603F0BAF8D5
:10AE900011E06FF480602168486145F00405B9F164
:10AEA000100F02D0B9F1400F05D12068006840F4BE
:10AEB000007021680860C7F3C02040B1C8F30020CB
:10AEC00028B145F008056FF40060216848612DB194
:10AED000206C28432064204602F0D4F9BDE8F88FA6
:10AEE0002DE9F04705464FF0000828684668D5F878
:10AEF0002C9095F83E7095F83DA0102F01D0402F72
:10AF00007FD12868D0F818802868446904F00100CF
:10AF100060B9B9F52A0F02D0B9F12A4F01D1012049
:10AF200000E00020012801D1BDE8F08704F0010015
:10AF300048B1C6F3402030B1284602F019F928463E
:10AF400002F000FEB4E0C4F3C00030B1C6F340200C
:10AF500018B1284602F0A1FCAAE0C4F3400030B1C9
:10AF6000C6F3402018B1284602F0ACFCA0E0C8F3BC
:10AF7000800028B32868406800F40060B0F5006FD6
:10AF8000E0D0C4F3C01048B1C6F3802030B1C4F3A0
:10AF9000800018B9284602F014FC89E0C4F3800050
:10AFA0000028CFD0C6F340200028CBD0102F03D1EB
:10AFB000284602F0C1FB7BE0284602F012FE77E053
:10AFC0002868406800F40060B0F5006F70D0C4F3EA
:10AFD000801050B1C6F3802038B1C4F3800020B98E
